S011000053656E736F722054482E73726563DD
S11300000C9434000C9451000C9451000C94510045
S11300100C9451000C9451000C9451000C94510018
S11300200C9451000C9451000C9451000C94510008
S11300300C9451000C9451000C9451000C945100F8
S11300400C9451000C9451000C9451000C945100E8
S11300500C9451000C9451000C9451000C945100D8
S11300600C9451000C94510011241FBECFEFD8E022
S1130070DEBFCDBF11E0A0E0B1E0E6EAF2E202C0EB
S113008005900D92A232B107D9F721E0A2E2B1E0C6
S113009001C01D92A832B207E1F70E94D90D0C9459
S11300A051110C9400000F931F93CF93DF93CDB79E
S11300B0DEB7CF56D1090FB6F894DEBF0FBECDBF61
S11300C09E0121593F4FF901808385E290E025E2AA
S11300D030E0F9012081422F4F709E0121593F4F9A
S11300E0F9012081207F242BFC01208385E290E00C
S11300F025E230E0F90120812E7FFC01208385E296
S113010090E025E230E0F90120812260FC012083A7
S113011080E090E0A0E8BFE389839A83AB83BC834B
S11301208E010D5A1F4F2BEA3AEA4AE250E46981E4
S11301307A818B819C810E94A410DC01CB01F8019F
S113014080839183A283B3838E01095A1F4F8981CF
S11301509A81AB81BC819C01AD01BC01CD010E949F
S1130160180FDC01CB01F80180839183A283B38350
S1130170CE018D5A9F4F20E030E040E85FE3FC0160
S113018060817181828193810E94840F88233CF471
S1130190CE01855A9F4F21E0FC0120832CC1CE0162
S11301A0895A9F4F20E03FEF4FE757E4FC016081FD
S11301B07181828193810E949F1018160CF0CDC02A
S11301C020E030E04AE754E469817A818B819C81A4
S11301D00E94890FDC01CB019E01245A3F4FF90193
S11301E080839183A283B3838E01005A1F4FCE0173
S11301F0845A9F4F20E030E04AEF54E4FC016081D0
S11302007181828193810E94A410DC01CB01F801E9
S113021080839183A283B383CE01805A9F4F20E0D1
S113022030E040E85FE3FC01608171818281938169
S11302300E94840F88234CF4CE018C599F4F21E0F7
S113024030E0FC01318320836DC0CE01805A9F4F82
S113025020E03FEF4FE757E4FC0160817181828128
S113026093810E949F1018160CF04AC0CE01845A44
S11302709F4F20E030E040E251E4FC016081718155
S1130280828193810E94A410DC01CB018E010C5960
S11302901F4FBC01CD010E94FB0FDC01CB01F80113
S11302A09183808324C0CE018A599F4F28EC30E08B
S11302B0FC0131832083CE018A599F4FFC01808148
S11302C091810197F1F79E012A593F4FF9019183DA
S11302D08083CE018C599F4F9E012C593F4FF901C9
S11302E02081318121503109FC0131832083CE01E9
S11302F08C599F4FFC0180819181892BA1F67BC091
S11303008E010C591F4FCE01805A9F4FFC01608112
S11303107181828193810E94FB0FDC01CB01F80182
S113032091838083CE0188599F4F9E012C593F4F62
S1130330F90120813181FC0131832083CE01885968
S11303409F4FFC01808191810197F1F79E0128590B
S11303503F4FF901918380834EC0CE018D5A9F4F48
S113036020E030E04FE753E4FC0160817181828139
S113037093810E949F1018166CF58E0106591F4F29
S1130380CE01895A9F4FFC016081718182819381E2
S11303900E94FB0FDC01CB01F80191838083CE0125
S11303A084599F4F9E0126593F4FF9012081318185
S11303B0FC0131832083CE0184599F4FFC0180814D
S11303C091810197F1F79E0124593F4FF9019183DF
S11303D0808328C08E01055A1F4FCE018D5A9F4F2E
S11303E0FC0160817181828193810E94FB0FDC0199
S11303F0CB01F8018083CE0182599F4F9E01255A7B
S11304003F4FF9012081FC012083CE0182599F4F87
S1130410FC018081282F2A95F1F7CE0182599F4F44
S1130420FC01208385E290E025E230E0F90120819F
S11304302D7FFC01208380E090E0A8ECB2E48D8362
S11304409E83AF83B8872BEA3AEA4AE250E46D818F
S11304507E818F8198850E94A410DC01CB018FAB33
S113046098AFA9AFBAAF8D819E81AF81B8859C0149
S1130470AD01BC01CD010E94180FDC01CB018BAF93
S11304809CAFADAFBEAF20E030E040E85FE36FA9C2
S113049078AD89AD9AAD0E94840F88231CF481E065
S11304A08FAF18C120E03FEF4FE757E46BAD7CAD51
S11304B08DAD9EAD0E949F1018160CF0CDC020E0AB
S11304C030E04AE754E46D817E818F8198850E94F3
S11304D0890FDC01CB019E01205C3F4FF901808331
S11304E09183A283B3838E010C5B1F4FCE01805C8A
S11304F09F4F20E030E04AEF54E4FC0160817181B9
S1130500828193810E94A410DC01CB01F8018083D5
S11305109183A283B383CE018C5B9F4F20E030E0B4
S113052040E85FE3FC0160817181828193810E94D4
S1130530840F88234CF4CE01885B9F4F21E030E088
S1130540FC01318320836DC0CE018C5B9F4F20E082
S11305503FEF4FE757E4FC01608171818281938111
S11305600E949F1018160CF04AC0CE01805C9F4F69
S113057020E030E040E251E4FC016081718182813D
S113058093810E94A410DC01CB018E01085B1F4FF4
S1130590BC01CD010E94FB0FDC01CB01F80191836A
S11305A0808324C0CE01865B9F4F28EC30E0FC01A1
S11305B031832083CE01865B9F4FFC018081918132
S11305C00197F1F79E01265B3F4FF90191838083E8
S11305D0CE01885B9F4F9E01285B3F4FF90120812C
S11305E0318121503109FC0131832083CE01885BA4
S11305F09F4FFC0180819181892BA1F66BC08E01F4
S1130600085B1F4FCE018C5B9F4FFC0160817181A1
S1130610828193810E94FB0FDC01CB01F80191835D
S11306208083CE01845B9F4F9E01285B3F4FF9017D
S113063020813181FC0131832083CE01845B9F4F73
S1130640FC01808191810197F1F79E01245B3F4F6A
S1130650F901918380833EC020E030E04FE753E40A
S11306606FA978AD89AD9AAD0E949F1018164CF50C
S11306708E01025B1F4F6BAD7CAD8DAD9EAD0E94B4
S1130680FB0FDC01CB01F80191838083CE01805BF9
S11306909F4F9E01225B3F4FF90120813181FC0174
S11306A031832083CE01805B9F4FFC018081918147
S11306B00197F1F79E01205B3F4FF90191838083FD
S11306C01CC06FA978AD89AD9AAD0E94FB0FDC0107
S11306D0CB018FAFCE018E5A9F4F2FADFC012083EB
S11306E0CE018E5A9F4FFC018081282F2A95F1F765
S11306F0CE018E5A9F4FFC01208385E290E025E2D3
S113070030E0F9012081422F4F709E0121593F4F63
S1130710F9012081222F30E022953295307F322753
S1130720207F3227242BFC01208385E290E025E200
S113073030E0F90120812260FC01208380E090E018
S1130740A0E8BFE389879A87AB87BC872BEA3AEA9C
S11307504AE250E469857A858B859C850E94A410C1
S1130760DC01CB018B8F9C8FAD8FBE8F89859A85E1
S1130770AB85BC859C01AD01BC01CD010E94180F65
S1130780DC01CB018F8F98A3A9A3BAA320E030E0AA
S113079040E85FE36B8D7C8D8D8D9E8D0E94840F70
S11307A088231CF481E08BA3B2C020E03FEF4FE725
S11307B057E46F8D78A189A19AA10E949F10181601
S11307C00CF07BC020E030E04AE754E469857A8588
S11307D08B859C850E94890FDC01CB018CA39DA392
S11307E0AEA3BFA320E030E04AEF54E46CA17DA1A6
S11307F08EA19FA10E94A410DC01CB0188A799A718
S1130800AAA7BBA720E030E040E85FE368A579A58C
S11308108AA59BA50E94840F88232CF481E090E094
S11308209DA78CA73FC020E03FEF4FE757E468A5A2
S113083079A58AA59BA50E949F1018164CF520E067
S113084030E040E251E46CA17DA18EA19FA10E9401
S1130850A410DC01CB01BC01CD010E94FB0FDC0123
S1130860CB019DA78CA70FC088EC90E09FA78EA713
S11308708EA59FA50197F1F79FA78EA78CA59DA58F
S113088001979DA78CA78CA59DA5892B69F73FC0CF
S113089068A579A58AA59BA50E94FB0FDC01CB0165
S11308A09DA78CA78CA59DA599AB88AB88A999A970
S11308B00197F1F799AB88AB2AC020E030E04FE70D
S11308C053E46B8D7C8D8D8D9E8D0E949F10181628
S11308D0ACF46F8D78A189A19AA10E94FB0FDC0171
S11308E0CB019BAB8AAB8AA99BA99DAB8CAB8CA992
S11308F09DA90197F1F79DAB8CAB0FC06B8D7C8DDF
S11309008D8D9E8D0E94FB0FDC01CB018BA38BA1EF
S11309108EAB8EA98A95F1F78EAB85E290E025E245
S113092030E0F90120812D7FFC01208380E090E0FC
S1130930A0E0B0E48D879E87AF87B88B20E030E0DD
S11309404AEF54E46D857E858F8598890E94A410B2
S1130950DC01CB01898B9A8BAB8BBC8B20E030E024
S113096040E85FE369897A898B899C890E94840FB6
S113097088232CF481E090E09E8B8D8B3FC020E097
S11309803FEF4FE757E469897A898B899C890E94F4
S11309909F1018164CF520E030E040E251E46D85DC
S11309A07E858F8598890E94A410DC01CB01BC014F
S11309B0CD010E94FB0FDC01CB019E8B8D8B0FC000
S11309C088EC90E0988F8F8B8F89988D0197F1F741
S11309D0988F8F8B8D899E8901979E8B8D8B8D89A6
S11309E09E89892B69F714C069897A898B899C89C6
S11309F00E94FB0FDC01CB019E8B8D8B8D899E8920
S1130A009A8F898F898D9A8D0197F1F79A8F898FA3
S1130A100000C159DF4F0FB6F894DEBF0FBECDBF43
S1130A20DF91CF911F910F9108950F931F93CF934F
S1130A30DF93CDB7DEB7CF56D1090FB6F894DEBF3A
S1130A400FBECDBF9E0121593F4FF901808385E23E
S1130A5090E025E230E0F9012081422F4F709E01A1
S1130A6021593F4FF9012081207F242BFC01208351
S1130A7085E290E025E230E0F90120812160FC016B
S1130A80208385E290E025E230E0F90120812260B4
S1130A90FC01208380E090E0A0E8BFE389839A838F
S1130AA0AB83BC838E010D5A1F4F2BEA3AEA4AE20C
S1130AB050E469817A818B819C810E94A410DC01BD
S1130AC0CB01F80180839183A283B3838E01095AF9
S1130AD01F4F89819A81AB81BC819C01AD01BC010E
S1130AE0CD010E94180FDC01CB01F80180839183B2
S1130AF0A283B383CE018D5A9F4F20E030E040E8BB
S1130B005FE3FC0160817181828193810E94840F83
S1130B1088233CF4CE01855A9F4F21E0FC012083B9
S1130B202CC1CE01895A9F4F20E03FEF4FE757E495
S1130B30FC0160817181828193810E949F1018164B
S1130B400CF0CDC020E030E04AE754E469817A81BA
S1130B508B819C810E94890FDC01CB019E01245A68
S1130B603F4FF90180839183A283B3838E01005A9E
S1130B701F4FCE01845A9F4F20E030E04AEF54E4E7
S1130B80FC0160817181828193810E94A410DC0147
S1130B90CB01F80180839183A283B383CE01805A71
S1130BA09F4F20E030E040E85FE3FC016081718109
S1130BB0828193810E94840F88234CF4CE018C5946
S1130BC09F4F21E030E0FC01318320836DC0CE01D2
S1130BD0805A9F4F20E03FEF4FE757E4FC016081CC
S1130BE07181828193810E949F1018160CF04AC073
S1130BF0CE01845A9F4F20E030E040E251E4FC01F2
S1130C0060817181828193810E94A410DC01CB01F7
S1130C108E010C591F4FBC01CD010E94FB0FDC015A
S1130C20CB01F8019183808324C0CE018A599F4F60
S1130C3028EC30E0FC0131832083CE018A599F4F98
S1130C40FC01808191810197F1F79E012A593F4F60
S1130C50F90191838083CE018C599F4F9E012C59B9
S1130C603F4FF9012081318121503109FC01318349
S1130C702083CE018C599F4FFC0180819181892B67
S1130C80A1F67BC08E010C591F4FCE01805A9F4F95
S1130C90FC0160817181828193810E94FB0FDC01E0
S1130CA0CB01F80191838083CE0188599F4F9E0127
S1130CB02C593F4FF90120813181FC01318320837C
S1130CC0CE0188599F4FFC01808191810197F1F7F2
S1130CD09E0128593F4FF901918380834EC0CE0174
S1130CE08D5A9F4F20E030E04FE753E4FC016081D0
S1130CF07181828193810E949F1018166CF58E0178
S1130D0006591F4FCE01895A9F4FFC0160817181A2
S1130D10828193810E94FB0FDC01CB01F801918356
S1130D208083CE0184599F4F9E0126593F4FF9017C
S1130D3020813181FC0131832083CE0184599F4F6E
S1130D40FC01808191810197F1F79E0124593F4F65
S1130D50F9019183808328C08E01055A1F4FCE016B
S1130D608D5A9F4FFC0160817181828193810E9421
S1130D70FB0FDC01CB01F8018083CE0182599F4F28
S1130D809E01255A3F4FF9012081FC012083CE01A9
S1130D9082599F4FFC018081282F2A95F1F7CE01BB
S1130DA082599F4FFC01208385E290E025E230E0E8
S1130DB0F90120812D7FFC01208380E090E0A8ECE4
S1130DC0B2E48D839E83AF83B8872BEA3AEA4AE282
S1130DD050E46D817E818F8198850E94A410DC018E
S1130DE0CB018FAB98AFA9AFBAAF8D819E81AF8194
S1130DF0B8859C01AD01BC01CD010E94180FDC0136
S1130E00CB018BAF9CAFADAFBEAF20E030E040E88C
S1130E105FE36FA978AD89AD9AAD0E94840F8823F2
S1130E201CF481E08FAF18C120E03FEF4FE757E497
S1130E306BAD7CAD8DAD9EAD0E949F1018160CF06D
S1130E40CDC020E030E04AE754E46D817E818F819B
S1130E5098850E94890FDC01CB019E01205C3F4FE5
S1130E60F90180839183A283B3838E010C5B1F4FAE
S1130E70CE01805C9F4F20E030E04AEF54E4FC0157
S1130E8060817181828193810E94A410DC01CB0175
S1130E90F80180839183A283B383CE018C5B9F4F3F
S1130EA020E030E040E85FE3FC01608171818281F1
S1130EB093810E94840F88234CF4CE01885B9F4F5A
S1130EC021E030E0FC01318320836DC0CE018C5BD6
S1130ED09F4F20E03FEF4FE757E4FC0160817181B1
S1130EE0828193810E949F1018160CF04AC0CE0193
S1130EF0805C9F4F20E030E040E251E4FC016081DF
S1130F007181828193810E94A410DC01CB018E0146
S1130F10085B1F4FBC01CD010E94FB0FDC01CB011C
S1130F20F8019183808324C0CE01865B9F4F28EC17
S1130F3030E0FC0131832083CE01865B9F4FFC01AE
S1130F40808191810197F1F79E01265B3F4FF90162
S1130F5091838083CE01885B9F4F9E01285B3F4F26
S1130F60F9012081318121503109FC013183208331
S1130F70CE01885B9F4FFC0180819181892BA1F672
S1130F806BC08E01085B1F4FCE018C5B9F4FFC0131
S1130F9060817181828193810E94FB0FDC01CB010E
S1130FA0F80191838083CE01845B9F4F9E01285B6F
S1130FB03F4FF90120813181FC0131832083CE012F
S1130FC0845B9F4FFC01808191810197F1F79E0121
S1130FD0245B3F4FF901918380833EC020E030E0E1
S1130FE04FE753E46FA978AD89AD9AAD0E949F1085
S1130FF018164CF58E01025B1F4F6BAD7CAD8DADA9
S11310009EAD0E94FB0FDC01CB01F801918380832C
S1131010CE01805B9F4F9E01225B3F4FF9012081EF
S11310203181FC0131832083CE01805B9F4FFC0121
S1131030808191810197F1F79E01205B3F4FF90177
S1131040918380831CC06FA978AD89AD9AAD0E944D
S1131050FB0FDC01CB018FAFCE018E5A9F4F2FAD1A
S1131060FC012083CE018E5A9F4FFC018081282FE2
S11310702A95F1F7CE018E5A9F4FFC01208385E219
S113108090E025E230E0F9012081422F4F709E016B
S113109021593F4FF9012081222F30E022953295CA
S11310A0307F3227207F3227242BFC01208385E2E6
S11310B090E025E230E0F90120812260FC012083E8
S11310C080E090E0A0E8BFE389879A87AB87BC877C
S11310D02BEA3AEA4AE250E469857A858B859C8555
S11310E00E94A410DC01CB018B8F9C8FAD8FBE8F2F
S11310F089859A85AB85BC859C01AD01BC01CD0178
S11311000E94180FDC01CB018F8F98A3A9A3BAA367
S113111020E030E040E85FE36B8D7C8D8D8D9E8D0B
S11311200E94840F88231CF481E08BA3B2C020E0CA
S11311303FEF4FE757E46F8D78A189A19AA10E94F0
S11311409F1018160CF07BC020E030E04AE754E40E
S113115069857A858B859C850E94890FDC01CB018A
S11311608CA39DA3AEA3BFA320E030E04AEF54E4D8
S11311706CA17DA18EA19FA10E94A410DC01CB01D2
S113118088A799A7AAA7BBA720E030E040E85FE3BF
S113119068A579A58AA59BA50E94840F88232CF4B1
S11311A081E090E09DA78CA73FC020E03FEF4FE790
S11311B057E468A579A58AA59BA50E949F101816D7
S11311C04CF520E030E040E251E46CA17DA18EA119
S11311D09FA10E94A410DC01CB01BC01CD010E949F
S11311E0FB0FDC01CB019DA78CA70FC088EC90E01E
S11311F09FA78EA78EA59FA50197F1F79FA78EA7FE
S11312008CA59DA501979DA78CA78CA59DA5892B31
S113121069F73FC068A579A58AA59BA50E94FB0F25
S1131220DC01CB019DA78CA78CA59DA599AB88ABB0
S113123088A999A90197F1F799AB88AB2AC020E056
S113124030E04FE753E46B8D7C8D8D8D9E8D0E9435
S11312509F101816ACF46F8D78A189A19AA10E94F1
S1131260FB0FDC01CB019BAB8AAB8AA99BA99DAB8D
S11312708CAB8CA99DA90197F1F79DAB8CAB0FC0EA
S11312806B8D7C8D8D8D9E8D0E94FB0FDC01CB01BF
S11312908BA38BA18EAB8EA98A95F1F78EAB85E2D9
S11312A090E025E230E0F90120812D7FFC012083CC
S11312B080E090E0A0E0B0E48D879E87AF87B88B94
S11312C020E030E04AEF54E46D857E858F8598896F
S11312D00E94A410DC01CB01898B9A8BAB8BBC8B55
S11312E020E030E040E85FE369897A898B899C8952
S11312F00E94840F88232CF481E090E09E8B8D8BD8
S11313003FC020E03FEF4FE757E469897A898B8932
S11313109C890E949F1018164CF520E030E040E2B2
S113132051E46D857E858F8598890E94A410DC0127
S1131330CB01BC01CD010E94FB0FDC01CB019E8BD4
S11313408D8B0FC088EC90E0988F8F8B8F89988D50
S11313500197F1F7988F8F8B8D899E8901979E8BCA
S11313608D8B8D899E89892B69F714C069897A8947
S11313708B899C890E94FB0FDC01CB019E8B8D8B9A
S11313808D899E899A8F898F898D9A8D0197F1F71E
S11313909A8F898F0000C159DF4F0FB6F894DEBFD2
S11313A00FBECDBFDF91CF911F910F910895CF93C1
S11313B0DF93CDB7DEB76C970FB6F894DEBF0FBEE0
S11313C0CDBF84E290E02FEFFC01208380E090E029
S11313D0A8E4B3E489839A83AB83BC8320E030E040
S11313E04AEF54E469817A818B819C810E94A41024
S11313F0DC01CB018B8B9C8BAD8BBE8B20E030E072
S113140040E85FE36B897C898D899E890E94840F03
S113141088232CF481E090E0988F8F8B3FC020E0EC
S11314203FEF4FE757E46B897C898D899E890E9441
S11314309F1018164CF520E030E040E251E4698139
S11314407A818B819C810E94A410DC01CB01BC01B8
S1131450CD010E94FB0FDC01CB01988F8F8B0FC055
S113146088EC90E09A8F898F898D9A8D0197F1F796
S11314709A8F898F8F89988D0197988F8F8B8F89F9
S1131480988D892B69F714C06B897C898D899E8915
S11314900E94FB0FDC01CB01988F8F8B8F89988D75
S11314A09C8F8B8F8B8D9C8D0197F1F79C8F8B8FED
S11314B083E30E94530082E30E94530088E20E9467
S11314C053008CE00E94530081E00E94530080E0AE
S11314D090E0A0E0B0E48D839E83AF83B88720E0E2
S11314E030E04AEF54E46D817E818F8198850E94BB
S11314F0A410DC01CB0189879A87AB87BC8720E0E5
S113150030E040E85FE369857A858B859C850E949D
S1131510840F88232CF481E090E09E878D873FC060
S113152020E03FEF4FE757E469857A858B859C85FA
S11315300E949F1018164CF520E030E040E251E480
S11315406D817E818F8198850E94A410DC01CB017E
S1131550BC01CD010E94FB0FDC01CB019E878D876E
S11315600FC088EC90E0988B8F878F8598890197BE
S1131570F1F7988B8F878D859E8501979E878D8740
S11315808D859E85892B69F714C069857A858B853D
S11315909C850E94FB0FDC01CB019E878D878D8586
S11315A09E859A8B898B89899A890197F1F79A8B01
S11315B0898B82E80E94530000006C960FB6F89461
S11315C0DEBF0FBECDBFDF91CF910895CF93DF93E0
S11315D000D000D0CDB7DEB78B836C8380E88983DD
S11315E080EC8A838C81882F90E09E012F5F3F4F8F
S11315F0820F931FFC0190818B81890F0E945300FD
S113160000000F900F900F900F90DF91CF910895ED
S1131610CF93DF9300D01F92CDB7DEB79B838A832D
S113162019820EC08981882F90E02A813B81820F24
S1131630931FFC0180810E94150589818F5F898336
S11316408981882F90E02A813B81820F931F298111
S1131650222F30E04A815B81240F351FF90120815C
S1131660FC012083FC0180818823E1F600000F90B7
S11316700F900F90DF91CF910895CF93DF93CDB763
S1131680DEB72E970FB6F894DEBF0FBECDBF81E054
S11316900E94530080E090E0A0E0B0E489839A8344
S11316A0AB83BC8320E030E04AEF54E469817A8163
S11316B08B819C810E94A410DC01CB018D839E83CD
S11316C0AF83B88720E030E040E85FE36D817E813E
S11316D08F8198850E94840F88232CF481E090E008
S11316E09A8789873FC020E03FEF4FE757E46D8139
S11316F07E818F8198850E949F1018164CF520E0FA
S113170030E040E251E469817A818B819C810E94BE
S1131710A410DC01CB01BC01CD010E94FB0FDC0154
S1131720CB019A8789870FC088EC90E09C878B87D0
S11317308B859C850197F1F79C878B8789859A8592
S113174001979A87898789859A85892B69F714C0B7
S11317506D817E818F8198850E94FB0FDC01CB0116
S11317609A87898789859A859E878D878D859E85A9
S11317700197F1F79E878D8700002E960FB6F89497
S1131780DEBF0FBECDBFDF91CF910895CF93DF931E
S1131790CDB7DEB72E970FB6F894DEBF0FBECDBF20
S11317A08AE290E02AE230E0F90120812064FC0121
S11317B020838BE290E02BE230E0F90120812F7B43
S11317C0FC01208380E090E0A0EAB1E489839A835D
S11317D0AB83BC8320E030E04AEF54E469817A8132
S11317E08B819C810E94A410DC01CB018D839E839C
S11317F0AF83B88720E030E040E85FE36D817E810D
S11318008F8198850E94840F88232CF481E090E0D6
S11318109A8789873FC020E03FEF4FE757E46D8107
S11318207E818F8198850E949F1018164CF520E0C8
S113183030E040E251E469817A818B819C810E948D
S1131840A410DC01CB01BC01CD010E94FB0FDC0123
S1131850CB019A8789870FC088EC90E09C878B879F
S11318608B859C850197F1F79C878B8789859A8561
S113187001979A87898789859A85892B69F714C086
S11318806D817E818F8198850E94FB0FDC01CB01E5
S11318909A87898789859A859E878D878D859E8578
S11318A00197F1F79E878D878BE290E02BE230E081
S11318B0F90120812064FC01208300002E960FB6DC
S11318C0F894DEBF0FBECDBFDF91CF910895CF93C3
S11318D0DF93CDB7DEB78AE290E02AE230E0F90187
S11318E020812F7BFC012083000089E290E0FC0131
S11318F08081882F90E080749927892BB1F70000AC
S113190089E290E0FC018081882F90E0807499271F
S1131910892BB1F3000089E290E0FC018081882FDB
S113192090E080749927892BB1F70000DF91CF9163
S11319300895CF93DF93CDB7DEB7A2970FB6F8948F
S1131940DEBF0FBECDBF1A82198223C1000089E217
S113195090E0FC018081882F90E080749927892B86
S1131960B1F380E090E0A0EFB1E48B839C83AD837E
S1131970BE832BEA3AEA4AE250E46B817C818D8192
S11319809E810E94A410DC01CB018F839887A987D4
S1131990BA878B819C81AD81BE819C01AD01BC0164
S11319A0CD010E94180FDC01CB018B879C87AD878A
S11319B0BE8720E030E040E85FE36F817885898569
S11319C09A850E94840F88231CF481E08F87B2C01B
S11319D020E03FEF4FE757E46B857C858D859E853E
S11319E00E949F1018160CF07BC020E030E04AE7FC
S11319F054E46B817C818D819E810E94890FDC017E
S1131A00CB01888B998BAA8BBB8B20E030E04AEF0B
S1131A1054E4688979898A899B890E94A410DC012D
S1131A20CB018C8B9D8BAE8BBF8B20E030E040E8EC
S1131A305FE36C897D898E899F890E94840F882346
S1131A402CF481E090E0998F888F3FC020E03FEF35
S1131A504FE757E46C897D898E899F890E949F1086
S1131A6018164CF520E030E040E251E468897989A9
S1131A708A899B890E94A410DC01CB01BC01CD01A1
S1131A800E94FB0FDC01CB01998F888F0FC088EC7B
S1131A9090E09B8F8A8F8A8D9B8D0197F1F79B8FA6
S1131AA08A8F888D998D0197998F888F888D998DCC
S1131AB0892B69F73FC06C897D898E899F890E9433
S1131AC0FB0FDC01CB01998F888F888D998D9D8FB9
S1131AD08C8F8C8D9D8D0197F1F79D8F8C8F2AC0F3
S1131AE020E030E04FE753E46F81788589859A855B
S1131AF00E949F101816ACF46B857C858D859E859D
S1131B000E94FB0FDC01CB019F8F8E8F8E8D9F8DEA
S1131B1099A388A388A199A10197F1F799A388A310
S1131B200FC06F81788589859A850E94FB0FDC013F
S1131B30CB018F878F858AA38AA18A95F1F78AA31F
S1131B4089E290E0FC018081882F90E080749927DD
S1131B50892B51F080912201882F90E0880F991FE2
S1131B6081608093220105C080912201880F8093B7
S1131B702201000089E290E0FC018081882F90E03E
S1131B8080749927892BB1F789819A8101969A8368
S1131B90898389819A8108970CF4D8CE8091220197
S1131BA0A2960FB6F894DEBF0FBECDBFDF91CF91E2
S1131BB00895CF93DF93CDB7DEB763970FB6F8944C
S1131BC0DEBF0FBECDBF0E94D7090E943D0B60E06F
S1131BD080E00E94E60A80E091E00E94080B61E048
S1131BE080E00E94E60A8BE091E00E94080B0E94CC
S1131BF0C60B0E94670C0E94990C809326010E94D8
S1131C00990C809323010E94990C809325010E94D2
S1131C10990C809327010E94990C80932401809150
S1131C202601282F30E080912301882F90E0280F8F
S1131C30391F80912501882F90E0280F391F80914A
S1131C402701882F90E0280F391F80912401882FC5
S1131C5090E02817390749F060E080E00E94E60A26
S1131C6083E191E00E94080B6FC080912601882FC8
S1131C7090E09E01215F3F4F4AE050E0B9010E948D
S1131C80111160E08BE00E94E60ACE010F960E94DB
S1131C90080B89E191E00E94080B80912301882FB1
S1131CA090E09E01215F3F4F4AE050E0B9010E945D
S1131CB01111CE010F960E94080B8BE191E00E9456
S1131CC0080B80912501882F90E09E01215F3F4FF2
S1131CD04AE050E0B9010E94111161E086E00E94DF
S1131CE0E60ACE010F960E94080B89E191E00E945A
S1131CF0080B80912701882F90E09E01215F3F4FC0
S1131D004AE050E0B9010E941111CE010F960E94E1
S1131D10080B8FED0E9415058DE191E00E94080BE0
S1131D2080912401882F90E09E01215F3F4F4AE07B
S1131D3050E0B9010E941111CE010F960E94080BC8
S1131D4080E291E00E94080B80E090E0AAEFB3E407
S1131D5089839A83AB83BC8320E030E04AEF54E468
S1131D6069817A818B819C810E94A410DC01CB0162
S1131D708D839E83AF83B88720E030E040E85FE343
S1131D806D817E818F8198850E94840F88232CF435
S1131D9081E090E09A8789873FC020E03FEF4FE7DA
S1131DA057E46D817E818F8198850E949F1018165B
S1131DB04CF520E030E040E251E469817A818B8186
S1131DC09C810E94A410DC01CB01BC01CD010E94C6
S1131DD0FB0FDC01CB019A8789870FC088EC90E068
S1131DE09C878B878B859C850197F1F79C878B87D4
S1131DF089859A8501979A87898789859A85892B08
S1131E0069F714C06D817E818F8198850E94FB0FD4
S1131E10DC01CB019A87898789859A859E878D877E
S1131E208D859E850197F1F79E878D87E0CE50586A
S1131E30BB27AA270E942F0F0C9465100E945710ED
S1131E4038F00E945E1020F039F49F3F19F426F414
S1131E500C9454100EF4E095E7FB0C944E10E92F0B
S1131E600E94761058F3BA17620773078407950720
S1131E7020F079F4A6F50C9498100EF4E0950B2E4E
S1131E80BA2FA02D0B01B90190010C01CA01A001C8
S1131E901124FF27591B99F0593F50F4503E68F123
S1131EA01A16F040A22F232F342F4427585FF3CF64
S1131EB0469537952795A795F0405395C9F77EF435
S1131EC01F16BA0B620B730B840BBAF09150A1F07E
S1131ED0FF0FBB1F661F771F881FC2F70EC0BA0F04
S1131EE0621F731F841F48F4879577956795B7958C
S1131EF0F7959E3F08F0B0CF9395880F08F0992787
S1131F00EE0F9795879508950E942A1008F481E0B2
S1131F1008950E949D0F0C9465100E945E1058F065
S1131F200E94571040F029F45F3F29F00C944E10A2
S1131F3051110C9499100C9454100E94761068F36B
S1131F409923B1F3552391F3951B550BBB27AA276E
S1131F5062177307840738F09F5F5F4F220F331FA8
S1131F60441FAA1FA9F335D00E2E3AF0E0E832D070
S1131F7091505040E695001CCAF72BD0FE2F29D073
S1131F80660F771F881FBB1F261737074807AB0745
S1131F90B0E809F0BB0B802DBF01FF2793585F4FBA
S1131FA03AF09E3F510578F00C944E100C94991021
S1131FB05F3FE4F3983ED4F3869577956795B7959C
S1131FC0F7959F5FC9F7880F911D9695879597F9A7
S1131FD00895E1E0660F771F881FBB1F6217730720
S1131FE08407BA0720F0621B730B840BBA0BEE1F35
S1131FF088F7E09508950E947E1088F09F5798F026
S1132000B92F9927B751B0F0E1F0660F771F881FF9
S1132010991F1AF0BA95C9F714C0B13091F00E9413
S11320209810B1E008950C949810672F782F8827A2
S1132030B85F39F0B93FCCF3869577956795B3953A
S1132040D9F73EF490958095709561957F4F8F4FA9
S11320509F4F0895990F0008550FAA0BE0E8FEEF73
S113206016161706E807F907C0F012161306E40758
S1132070F50798F0621B730B840B950B39F40A2651
S113208061F0232B242B252B21F408950A2609F42F
S1132090A140A6958FEF811D811D089597F99F6733
S11320A080E870E060E008959FEF80EC08950024DC
S11320B00A941616170618060906089500240A94A9
S11320C012161306140605060895092E0394000C2F
S11320D011F4882352F0BB0F40F4BF2B11F460FFBE
S11320E004C06F5F7F4F8F4F9F4F089557FD9058E7
S11320F0440F551F59F05F3F71F04795880F97FBC8
S1132100991F61F09F3F79F0879508951216130681
S11321101406551FF2CF4695F1DF08C016161706B0
S11321201806991FF1CF86957105610508940895E5
S1132130E894BB2766277727CB0197F908950E9477
S11321402A1008F48FEF08950E94B7100C946510BC
S11321500E94571038F00E945E1020F0952311F071
S11321600C944E100C94541011240C9499100E9449
S1132170761070F3959FC1F3950F50E0551F629F41
S1132180F001729FBB27F00DB11D639FAA27F00DCC
S1132190B11DAA1F649F6627B00DA11D661F829FF3
S11321A02227B00DA11D621F739FB00DA11D621FD8
S11321B0839FA00D611D221F749F3327A00D611DF5
S11321C0231F849F600D211D822F762F6A2F1124D7
S11321D09F5750409AF0F1F088234AF0EE0FFF1F0A
S11321E0BB1F661F771F881F91505040A9F79E3F61
S11321F0510580F00C944E100C9499105F3FE4F359
S1132200983ED4F3869577956795B795F795E795B6
S11322109F5FC1F7FE2B880F911D9695879597F9BF
S113222008954532510520F4423010F00C941C11ED
S1132230FB011082CB010895BB274A3031F4992366
S113224022F4BDE2909581959F4F0C942811BB27F1
S1132250FB015527AA27880F991FAA1FA41710F05E
S1132260A41B83955051B9F7A05DAA3308F0A95D6A
S1132270A193009779F7B111B1931192CB010C940A
S11322804111DC01FC01672F71917723E1F732974B
S113229004C07C916D9370836291AE17BF07C8F33D
S10922A00895F894FFCF3D
S11322A648756D6964697479203D0054656D7020C4
S11322B63D20004572726F72002E002500432000F7
S10522C62000F2
S9030000FC
